:1000000087C3A1C3A0C39FC39EC39DC39CC39BC3FF
:100010009AC399C398C397C396C395C394C393C314
:1000200092C391C390C38FC38EC38DC38CC38BC344
:100030008AC389C388C387C386C385C342652D42EB
:100040006F702D412D4C756C613A643D342C6F3DC1
:10005000352C623D3138303A32702C32612C612CB3
:1000600038612C38652C672C612C612C612C672C35
:10007000612C38702C38612C38612C38652C672C39
:1000800038612C38612C612C612C672C6100467220
:1000900069656E6473205468656D652023323A4348
:1000A0002B452B652B642B63234123412B632B446E
:1000B0002B43432B452B652B642B63234123412B7F
:1000C000632B442B4300426F6765793A643D342CBF
:1000D0006F3D352C623D3134303A38672C38652C11
:1000E000702C38702C38652C38662C38672C6536A7
:1000F0002C65362C3263362C38672C38652C702CE6
:1001000038702C38652C38662C38652C672C672C99
:1001100032662C38662C38642C702C38702C38647D
:100120002C38652C38662C38672C38652C702C38A8
:10013000702C38652C3866232C38652C38642C38A4
:10014000672C38702C38652C3866232C38642C3892
:10015000702C38612C38672E2C313666232C38678A
:100160002C38612C38672C38662C38652C38642C78
:10017000386300426972647920533A643D342C6FCD
:100180003D352C623D3130303A3136672C3136679F
:100190002C3136612C3136612C3136652C31366587
:1001A0002C38672C3136672C3136672C3136612C70
:1001B0003136612C3136652C3136652C38672C315F
:1001C00036672C3136672C3136612C3136612C3153
:1001D0003663362C313663362C38622C38622C3834
:1001E000612C38672C38662C3136662C3136662CFB
:1001F0003136672C3136672C3136642C3136642C1D
:1002000038662C3136662C3136662C3136672C3107
:1002100036672C3136642C3136642C38662C3136F6
:10022000662C3136662C3136672C3136672C3136E8
:10023000612C3136622C3863362C38612C38672CAF
:1002400038652C6300426172626965206769726C6F
:100250003A643D342C6F3D352C623D3132353A38AD
:1002600067232C38652C3867232C386323362C61A0
:100270002C702C3866232C3864232C3866232C38B9
:10028000622C67232C3866232C38652C702C38653B
:100290002C3863232C66232C63232C702C38662384
:1002A0002C38652C67232C66232C3867232C386563
:1002B0002C3867232C386323362C612C702C38663D
:1002C000232C3864232C3866232C38622C67232C8B
:1002D0003866232C38652C702C38652C3863232C19
:1002E00066232C63232C702C3866232C38652C67EE
:1002F000232C66232C3867232C38652C3867232C55
:10030000386323362C612C702C3866232C386423F8
:100310002C3866232C38622C67232C3866232C3823
:10032000652C702C38652C3863232C66232C6323B2
:100330002C702C3866232C38652C67232C66230000
:10034000416761646F6F3A643D342C6F3D352C62B8
:100350003D3132353A38622C3867232C652C3865AC
:100360002C38652C652C38652C38652C38652C3874
:10037000652C3864232C38652C66232C38612C3886
:1003800066232C64232C3864232C3864232C6423A8
:100390002C3864232C3864232C3864232C386423B1
:1003A0002C3863232C3864232C65005A656C6461F7
:1003B000313A643D342C6F3D352C623D3132353A53
:1003C00061232C662E2C3861232C313661232C318D
:1003D0003663362C313664362C31366423362C3273
:1003E00066362C38702C3866362C3136662E362C14
:1003F00031366623362C313667232E362C32612374
:100400002E362C313661232E362C31366723362C8E
:10041000313666232E362C3867232E362C3136663D
:10042000232E362C3266362C66362C386423362C36
:1004300031366423362C313666362C326623362C20
:100440003866362C386423362C386323362C313604
:100450006323362C31366423362C3266362C3864CE
:1004600023362C386323362C3863362C31366336EA
:100470002C313664362C3265362C67362C3866368D
:100480002C3136662C3136662C38662C3136662C8B
:100490003136662C38662C3136662C3136662C386F
:1004A000662C38662C61232C662E2C3861232C3167
:1004B0003661232C313663362C313664362C313696
:1004C0006423362C3266362C38702C3866362C3144
:1004D00036662E362C31366623362C313667232E7F
:1004E000362C3261232E362C6323372C63372C3283
:1004F00061362C66362C3266232E362C6123362C40
:1005000061362C3266362C66362C3266232E362C1B
:100510006123362C61362C3266362C64362C3264DC
:10052000232E362C6623362C66362C326323362C4B
:1005300061232C63362C313664362C3265362C67B9
:10054000362C3866362C3136662C3136662C3866B9
:100550002C3136662C3136662C38662C3136662CBA
:100560003136662C38662C3866004D6F7265207403
:1005700068616E20776F7264733A643D342C6F3D0E
:10058000352C623D39303A32702C38652C38672C66
:1005900038672C38652C612E2C38672C672C387006
:1005A0002C38672C672C38612C672C672C672C380B
:1005B000672C38612C38672C38662C662C38662CF2
:1005C0006700426972647920533A643D342C6F3D70
:1005D000352C623D3130303A3136672C3136672C5C
:1005E0003136612C3136612C3136652C3136652C33
:1005F00038672C3136672C3136672C3136612C3117
:1006000036612C3136652C3136652C38672C313605
:10061000672C3136672C3136612C3136612C3136FE
:1006200063362C313663362C38622C38622C3861B4
:100630002C38672C38662C3136662C3136662C31D6
:1006400036672C3136672C3136642C3136642C38C1
:10065000662C3136662C3136662C3136672C3136B5
:10066000672C3136642C3136642C38662C31366672
:100670002C3136662C3136672C3136672C31366199
:100680002C3136622C3863362C38612C38672C3884
:10069000652C6300706963636F6C6F3A643D342C42
:1006A0006F3D352C623D3332303A64362C67362C40
:1006B000672C67362C3864362C3865362C3864360F
:1006C0002C38622C672C642C38672C38612C3862EB
:1006D0002C3863362C64362C67362C3164362C6407
:1006E000362C67362C672C67362C3864362C3865E8
:1006F000362C38622C672C642C38662C38672C38E2
:10070000612C38622C63362C66362C31633600003F
:1007100011241FBECFEFD2E0DEBFCDBF11E0A0E0BD
:10072000B1E0EEE3FFE002C005900D92AE3BB107F1
:10073000D9F722E0AEEBB1E001C01D92A031B207C3
:10074000E1F759D2FAC35CCCC999FECF92E09A95F1
:10075000F1F700C0882399F08F5F883039F48091D9
:1007600062008160809362008BE015C0893039F4AB
:10077000809162008260809362008AE00CC0909158
:10078000630021E030E0082E01C0220F0A94EAF74E
:10079000922B909363009EE099B92E9A2E99FECFEA
:1007A0008A3021F4909162009D7F05C08B3031F436
:1007B000909162009E7F909362000DC090916300C3
:1007C00021E030E0082E01C0220F0A94EAF72095BC
:1007D0002923209363008F7089B92E9A2E99FECF1A
:1007E00086B127B190E0922B0895FF920F931F934B
:1007F000CF93DF93F82E0AE010E0C0E0D0E08F2D19
:10080000A3DFC80FD91F0150110901151105B9F750
:10081000CE016AE070E03FD3CB01DF91CF911F9111
:100820000F91FF900895CF92DF92EF92FF920F9376
:100830001F93CF93DF931092C7011092C6011092BD
:10084000C5011092C401CAEFD1E08CECC82E81E042
:10085000D82E98EEE92E91E0F92E00E010E0802FDE
:10086000C4DFFE0148815981841795071CF49983E0
:10087000888328C04F5F5F4F481759071CF5D70181
:100880002D913C9111972F5F3F4F243031051CF47F
:100890002D933C9305C0D7011D921C925983488328
:1008A000D6012D913C914091C6015091C70142174C
:1008B000530744F43093C7012093C6011093C50138
:1008C0000093C401229620813181821B930BF60193
:1008D000819391936F010F5F1F4FF2E0EF0EF11CB8
:1008E0000930110509F0BBCFDF91CF911F910F9116
:1008F000FF90EF90DF90CF90089520E030E0281730
:1009000039074CF4EDECF7E03197F1F700C0000047
:100910002F5F3F4FF4CF08959B01442737FD40954B
:10092000542F60E072E18AE790E0C9D23093C100B1
:100930002093C000369527953093C3002093C200C2
:1009400008951092C1001092C0001092C30010923E
:10095000C20008952F923F924F925F926F927F92C2
:100960008F929F92AF92BF92CF92DF92EF92FF92BF
:100970000F931F93CF93DF9300D000D000D0CDB75B
:10098000DEB7FC012491AC014F5F5F4F2A3311F0B9
:10099000CA01F7CF5E834D83FA0124912436F1F426
:1009A000329680E090E02491DF011196203328F404
:1009B000181619067CF014E00EC024912A33C0F7F3
:1009C0006AE070E057D2E491F0E0F0978E0F9F1F3D
:1009D000FD01E9CF182FBE83AD8301C014E0ED8186
:1009E000FE8184918F36A1F4ED81FE813296E491EF
:1009F000F0E03F0180E3681A7108F397359710F033
:100A0000F6E06F2EAD81BE811496BE83AD8302C029
:100A1000E6E06E2EED81FE8184918236E1F4ED8177
:100A2000FE81329620E030E08491DF011196803320
:100A300018F4BE83AD8311C084918A33D0F7C90105
:100A40006AE070E017D29C01E491F0E0F0972E0F7D
:100A50003F1FFD01E9CF2FE330E0442737FD4095EC
:100A6000542F60E67AEE80E090E04BD249015A01C3
:100A700062E0880C991CAA1CBB1C6A95D1F7812FD7
:100A800090E0A0E0B0E089839A83AB83BC8372E0FE
:100A9000272E312C412C512CED81FE81849188230D
:100AA00009F490C020E030E0ED81FE8184918F0157
:100AB0000F5F1F4F803350F421153105D9F04427C3
:100AC00037FD4095542FC501B4011AC0ED81FE8158
:100AD00084918A3388F7C9016AE070E0CBD19C0128
:100AE000ED81FE81849190E0C097280F391F1E830D
:100AF0000D83DACFC501B40129813A814B815C8134
:100B000000D269017A01ED81FE818491815687309E
:100B100030F4E82FF0E0EB54FE4F708001C0712CF0
:100B2000F8018491833229F473940D811E810E5F44
:100B30001F4FF80184918E3259F4C701B601A2010A
:100B40009101DFD1C20ED31EE41EF51E0F5F1F4FB1
:100B5000F8018491803350F0F80184918A3330F4A5
:100B6000F801849180530F5F1F4F01C0862DF8015B
:100B700094919C3211F40F5F1F4F7720F1F090E0B9
:100B800004976CE070E076D1870D911D880F991F56
:100B9000885B9E4FDC016D917C918091000190916A
:100BA0000101BADEC601A9DE1092C1001092C00098
:100BB0001092C3001092C20002C0C6019EDE1E83C6
:100BC0000D836ACF26960FB6F894DEBF0FBECDBF59
:100BD000DF91CF911F910F91FF90EF90DF90CF9019
:100BE000BF90AF909F908F907F906F905F904F904D
:100BF0003F902F90089588ED8093710010927300BC
:100C000082E08ABB85E885B9A8EEB1E0EAEFF1E0C1
:100C100088EE93E0819391931D921D9222E0EC3037
:100C2000F207C1F782E08093670082EA8093CA00EE
:100C300089E18093C9008EEF90E09093C10080938A
:100C4000C0008FE790E09093C3008093C200809132
:100C50006600816080936600C12C82E1D82E8AE70D
:100C6000E82EF12C8FE19EE40197F1F700C000001F
:100C7000DADD8091D6019091D7014091D801509151
:100C8000D9012091DA013091DB016091CC017091A2
:100C9000CD018F3191051CF480E090E009C04E97A2
:100CA000FA01E555F109E817F907B4F784E090E097
:100CB000693271054CF068527109F9013C97E617E9
:100CC000F70714F480E190E02D30310554F0BA01BB
:100CD00065557109F9013C97E617F70714F08CE0A8
:100CE00090E0463551053CF0455551092C503109ED
:100CF000421753071CF4009759F102C088E090E0B6
:100D00004091D4015091D5012091D2013091D3016D
:100D1000453651052CF02833310514F0049674C083
:100D20002F36310514F003966FC02091D001309119
:100D3000D1012F36310514F0029666C02091CE0104
:100D40003091CF01253631050CF45EC001965CC0B0
:100D50008091DC019091DD01873991050CF478C018
:100D600080916600816080936600ECECF1E0AAEF70
:100D7000B1E080E090E0219131914D915D91240F9F
:100D8000351F820F931F21E0EE3DF207A1F78A3055
:100D9000910510F00997FBCF009719F484E996E0CC
:100DA00031C08130910519F482EC95E02BC082307E
:100DB000910519F48AE695E025C08330910519F470
:100DC0008BEA93E01FC08430910519F480E493E02E
:100DD00019C08530910519F485E492E013C086307E
:100DE000910519F483E791E00DC08730910519F45E
:100DF00086EC90E007C0089719F48EE890E002C0F6
:100E00008CE390E0A7DD24C0FC01EE0FFF1FEE5F36
:100E1000FE4F2081318140E050E0C701B6014FD044
:100E20008091C0009091C1008217930709F41ACFF6
:100E30003093C1002093C000369527953093C300AE
:100E40002093C200809166008160809366000ACF83
:100E50008091C0009091C100892B09F403CF80914B
:100E600066008E7F809366001092C1001092C000D1
:100E70001BBAF8CE0024552704C0080E591F880F4E
:100E8000991F009729F076956795B8F37105B9F722
:100E9000802D952F0895AA1BBB1B51E107C0AA1FE7
:100EA000BB1FA617B70710F0A61BB70B881F991F0B
:100EB0005A95A9F780959095BC01CD010895A1E2BE
:100EC0001A2EAA1BBB1BFD010DC0AA1FBB1FEE1FC4
:100ED000FF1FA217B307E407F50720F0A21BB30B0F
:100EE000E40BF50B661F771F881F991F1A9469F78B
:100EF00060957095809590959B01AC01BD01CF01E7
:100F00000895052E97FB16F400940FD057FD05D0D9
:100F1000D6DF07FC02D046F408C0509540953095C6
:100F200021953F4F4F4F5F4F089590958095709555
:0E0F300061957F4F8F4F9F4F0895F894FFCF2C
:100F3E00060083009300A500AF00C400DC00F7009C
:100F4E00060126014A0172018801B801EE010B0269
:100F5E004B029302E40210037003DC0317049704A0
:100F6E002705C8052006E006B8072D082D094D0AED
:100F7E00EA0A400CC00D6F0F000006011501260194
:100F8E0037014A015D01720188019F01B801D2014A
:100F9E00EE010B022A024B026E029302BA02E40227
:100FAE0010033F037003A403DC03170455049704D6
:100FBE00DD0427057505C80520067D06E0064907F0
:100FCE00B8072D08A9082D09B9094D0AEA0A900B90
:100FDE00400CFA0CC00D910E6F0F5A1053115B128C
:0E0FEE00721317021E0A0C0103050608050007
:00000001FF
